:020000040000fa
:10000000f83f0020d1030000a3050000c105000057
:1000100000000000000000000000000000000000e0
:1000200000000000000000000000000027050000a4
:100030000000000000000000270500002705000068
:100040002705000027050000890400007d0200004c
:100050002705000027050000270500000102000019
:1000600027050000270500002705000027050000e0
:100070002705000061050000270500002705000096
:1000800027050000270500002705000027050000c0
:1000900027050000270500002705000027050000b0
:0c00a000270500002705000027050000d0
:020000040000fa
:1000ac00f8b5c046f8bc08bc9e467047b1030000ca
:1000bc00f8b5c046f8bc08bc9e46704789030000e2
:020000040000fa
:1000cc00254b01221a6019008b681a42fcd1224b75
:1000dc000522da635969f02212010a435a615969ff
:1000ec001e4a0a435a61190040228b681a42fcd1fd
:1000fc00194b01229a62962252011a64190080222d
:10010c008b681a42fcd1144b962292005a64190047
:10011c00593aff3a8b681342fcd10f4b9622d2000e
:10012c009a641900802292008b681342fcd10a4b0e
:10013c00fa22d200da6419008022d2008b681342b2
:10014c00fcd1054b064a1a651900802212018b68f6
:10015c001342fcd17047c046002400420000fafa5a
:04016c00b80b0000cc
:020000040000fa
:100170001e4b5a6852031b68db0c13439b029b0afd
:100180001b4a93630023537513009a69002afcd11c
:10019000174a0123d1680b42fcd1144b1b681b0189
:1001a000fe22d203134006221343124a9361022314
:1001b000d1680b42fcd0104b832252001a621a0005
:1001c000042351680b42fcd10b4b822252005a622d
:1001d0001a00082351680b42fcd1074adc23402156
:1001e000d150064b520dda617047c0462060800046
:1001f0000010004000140040001c004000080040b7
:020000040000fa
:1002000010b582b0002301931a4a118c0f330b40b2
:100210003f21545ce4b253540f31525cd2b201928c
:10022000019a0220920708d512494e2288541901da
:10023000114a5218002111730138019ad20709d5c9
:100240000c494e220120885419010b4a52180021f2
:10025000117301301901084a52185268002a04d05b
:10026000054a531899685b689847024a3f23d4545b
:0c02700002b010bd006000412c01002015
:020000040000fa
:10027c00f8b50024144d154e03e077610134102cb1
:10028c0020d063001b199b00eb181b899bb2a1b2f9
:10029c008b42f3d173690127a7401f42eed0630054
:1002ac001b199b0008495b58002be6d00800630023
:1002bc0019198900411849681b199b001b58080023
:1002cc009847dae7f8bdc04600000020002800403f
:020000040000fa
:1002dc0000230e4a10b513600d4a13600d4a1360cb
:1002ec000d4a13600d4a13600d4a536213610133ba
:1002fc00936000f062f900f060f90a4c0a4b9c42e2
:10030c0000d310bd08cc9847f8e7c0465401002034
:10031c00cc000020c8000020c0000020c400002039
:0c032c00d0000020b8000000bc00000061
:020000040000fa
:10033800100100201c000000000000002c0100201b
:10034800100000000000000000000020c0000000b5
:10035800000000003c010020180000000000000020
:10036800c0000020500000000000000054010020e0
:100378000400000000000000000000000000000071
:020000040000fa
:1003880010b5064c2378002b07d1054b002b02d063
:10039800044800e000bf0123237010bd10010020b5
:1003a8000000000000000000044b10b5002b03d033
:1003b8000349044800e000bf10bdc046000000002b
:0803c8001401002000000000f8
:020000040000fa
:1003d00010b50a4b98470a4b984700f03bf8094b79
:1003e000ff229343084a9360084b9847084b98476d
:1003f000084b984700f098f8fee7c046c305000098
:10040000c30500000000000000ed00e0dd02000078
:08041000c3050000c305000054
:020000040000fa
:100418008223db05012248215a5401315a54013103
:100428005a5401315a5403315a5401315a54013142
:100438005a5401315a5433320d39995421320f39f3
:0c0448005a5402315a5401315a54704782
:020000040000fa
:1004540010b50a480168002903d14368002b00d174
:1004640010bd04008368064a9bb20c349b009b5861
:1004740042682000984780002018ebe7380300000a
:040484007c050000f3
:020000040000fa
:1004880010b5084b9a8992b207494a60074a9a817f
:100498009b890b68002b04d00b00486889681b688f
:1004a800984710bd002400403c010020ff81ffff59
:020000040000fa
:1004b800bff35f8f62b6074bc32080001a58064906
:1004c8001140c02212020a431a50802292011a6077
:0c04d8007047c04600e100e0ff00ffff9d
:020000040000fa
:1004e40010b5074b06225a60fff794fffff73efe54
:1004f400fff7eafd00f054f8fff7dcff10bdc0463b
:040504000040004172
:020000040000fa
:10050800002310b5934206d103201840421e9041a3
:0e0518009b08c01810bdc45ccc540133f2e740
:020000040000fa
:02052600fee7ee
:020000040000fa
:1005280010b50020fff7daff0021034800f03cf87f
:0c05380000f004f8fee7c046c505000016
:020000040000fa
:10054400054a136802210b431360110002228b68d1
:0c0554001a42fcd17047c046002400424f
:020000040000fa
:1005600010b5044b0122da62034b59681b68002066
:0c057000984710bd002400424801002004
:020000040000fa
:10057c009105000009050000bd050000bd05000047
:04058c00bd050000a9
:020000040000fa
:100590008a18914201d10020704700230b7001316d
:0205a000f7e77b
:020000040000fa
:0205a200fee772
:020000040000fa
:0c05a400014b84225a6070470040004167
:020000040000fa
:0c05b000014b18605960704748010020a2
:020000040000fa
:0405bc000020704764
:020000040000fa
:0205c000fee754
:020000040000fa
:0205c200704780
:020000040000fa
:0205c40070477e
:020000040000fa
:0205c60070477c
:020000040000fa
:0200000400807a
:04400000ff00fe03bc
:020000040000fa
:0200000400807a
:0440040000fcffffbe
:00000001FF
