:020000040000fa
:10000000f03f002079120000530c00008b14000018
:1000100000000000000000000000000000000000e0
:10002000000000000000000000000000e3090000e4
:100030000000000000000000e3090000e3090000e8
:10004000e3090000e30900008d140000f50d000035
:10005000e3090000e3090000e3090000650a00006d
:10006000e3090000e3090000e3090000e3090000e0
:10007000e3090000e3090000e3090000e3090000d0
:10008000e3090000e3090000e3090000e3090000c0
:10009000e3090000e3090000e3090000e3090000b0
:0c00a000e3090000e3090000e309000090
:020000040000fa
:1000ac00f8b5c046f8bc08bc9e467047111200005b
:1000bc00f8b5c046f8bc08bc9e467047e911000074
:020000040000fa
:1000cc000023f0b506001500b1b007910393079912
:1000dc000b78002b00d10ce101235b420c9310ab8d
:1000ec0000240e9380230b940d940f930b5d002b27
:1000fc0001d0252b2ad1002c06d02200300001f093
:10010c001bf9079b1b190793079b1a78252a00d00c
:10011c00e4e0013304930793022301219c4610274a
:10012c00079803782b2b1ad025d8202b1ad0232be9
:10013c001dd02a2b28d001f0dff80d90079b1a78e0
:10014c00303a092a31d801330793f7e70134cde768
:10015c000b9b05930b4301300b930790e0e70423b3
:10016c000b9a0fe00b9b0593059a08230ae00b9b57
:10017c0005933b43efe72d2bead0302bd9d16246c8
:10018c000b9b05931343e6e72b6801301a1d1b6884
:10019c0007902a600d93002b07da0b9a5b420592ad
:1001ac00012205990d934a400b920b9bda0702d55d
:1001bc00022293430b93079b1a782e2a0ed100220e
:1001cc00581c0c9207905a782a2a27d1023307938d
:1001dc002b681a1d1b682a6005930c9307a801f065
:1001ec0001f9079b0700187801f006fb692800d17c
:1001fc0082e034dc632800d1dbe01adc252800d156
:10020c00e8e0612858d0049b012207930023524256
:10021c000c920b930d9300930232e5e001f06cf815
:10022c000c90079b1a78303a092ad7d801330793d8
:10023c00f7e7642860d06728e5dc2a00390008a8b5
:10024c0001f04cf9002800d1afe0079b0ba95a1c18
:10025c0007921b7808aa300001f001fb3de07028e2
:10026c0000d17de016dc6e2800d197e06f28cad152
:10027c002b000022390008a800f0c0fa002800d199
:10028c0093e0079b08aa01330ba93000079301f0f8
:10029c00e4fa22e0752840d078284fd07328b2d1e8
:1002ac00802f00d081e0079b2a6801330793131d30
:1002bc002b601268002388e02a00390008a801f09e
:1002cc000df9002800d170e0079b0ba95a1c07926e
:1002dc001b7808aa300001f0c2fa2418039b1c19e1
:1002ec00a34200dc82e04f22414b1a6001235b42a7
:1002fc000393039831b0f0bd2b000122390008a8fc
:10030c0000f07cfa002850d0079b08aa01330ba9f7
:10031c003000079301f0a1fadfe72b00002239002f
:10032c0008a800f06bfa00283fd0079b08aa0133fd
:10033c000ba93000079301f090facee72b000022b6
:10034c00390008a800f05afa00282ed0079b5a1c36
:10035c0007921b7808aa0ba9300001f080fabce7c1
:10036c002b000022f02108a800f048fa00281cd02d
:10037c00079b099a01330793089b13430cd11d4f1c
:10038c00380001f07bf9390002000b9b00930d9ba8
:10039c00300000f01bfca0e77823dbe7039b39005f
:1003ac001a1908a82b0000f087fc079b0133079350
:1003bc0094e7802ff9d1079b013307932b681a1d03
:1003cc001b682a6008aa137001230ba9300000f0e7
:1003dc003ffe82e7802fe8d10122079b0133079370
:1003ec000b9b049300930d9b0349d1e703946ee69a
:0c03fc00f0050020421800004818000026
:020000040000fa
:100408007c0500204c0000000000000008040020cb
:10041800c000000000000000c80500200c0000001b
:1004280000000000f80500200300000000000000a4
:10043800c80400206400000000000000fb05002044
:10044800010000000100000001000000e805002094
:1004580004000000000000002c05002050000000ef
:1004680000000000fc0500206c00000001000000f6
:1004780008060020040600200806002000000000ee
:100488002500000008000020000400000000000013
:100498000000000000000000000000000000000054
:1004a8000000000000000000000000006f180000bd
:1004b8000000000000000000000000000000000034
:1004c8002d0d0000000000000000000000000000ea
:1004d80000000000000000000000000000000020f4
:1004e8000804000000000000c806002020000000ea
:1004f80001000000010000000300000000000000ef
:1005080000000000000000000000000000000000e3
:10051800e0050020e00500200800000000000000c1
:10052800ec0500200800000000000000680600201c
:10053800600000000100000001000000030000004e
:1005480000000000000000000000000000000000a3
:1005580000000000b10e00000000000000000000d4
:100568000000000039180000131800000000000007
:100578000000000000000000000000000000000073
:100588000000000000000000000000000000000063
:100598000000000000000000e80600200400000041
:1005a8000100000001000000f40500200400000024
:1005b80000000000d40500200c000000000000002e
:1005c80000000000000000006666666666666666f3
:020000040000fa
:1005d800f0b5d646474680b59bb06422002101a8f5
:1005e80001f0baf8002000f0e3fc0022454906209b
:1005f80000f0a0ff00224449002001f0e7f80021a4
:10060800424801f009f94249424b0a0013cb13c290
:1006180013cb13c213cb13c2196811601b79137162
:1006280000f0f6ff3c4c3d4da046002616e0434640
:100638001e703a4b1e708223db0580221204da6199
:10064800334f380001f01cf80300354a39003000f8
:1006580000f072f8334b1b78002b06d12378002b5f
:10066800f8d02b78002bf5d0e1e72e4b1e702e4bdf
:100678001b78002b29d12c4b01221a708020c00036
:1006880001f042f8300001f035f8284f264b9a4621
:100698001b789a00d2189200ba18254901a801f0cf
:1006a80007f801a800f0ecff03001d4a01a930007b
:1006b80000f042f853461b789a00d2189200ba18f4
:1006c8001c49134800f0f4ffc8e7012b0ad0022b9d
:1006d80010d0032bd6d1144b1e708020800001f05f
:1006e80013f8cfe7104b02221a708020000101f0a6
:1006f8000bf8c7e70c4b03221a708020400101f069
:1007080003f8bfe72d18000025170000e5170000c3
:10071800c8040020540c0000f9050020fb05002047
:1007280028080042f8050020fa0500200c100000f7
:08073800800c0000a80c000079
:020000040000fa
:10074000f0b505012d4c6419267bf6b22c4d3f27e0
:10075000ec5de4b2e8550f37ed5dad0702d1002541
:10076000002e3bd1264e4e25032777550501234efb
:100770007619023f3773234ead5b6d0533d5c9182b
:100780000601204dad19696001011e4d495b090547
:100790002ed5d21805011b4949198a60194905014e
:1007a0006a5a9205920fd3409bb249194b80144a62
:1007b0004021535c02252b435354516c536c9b04d2
:1007c0009b0e08220a4013430125002b06d10c4a38
:1007d0001169012383400b4313610125084a3f231c
:1007e000d4542800f0bd0601064dad196960cbe771
:1007f0000501044949198a60d0e7c046a8050020d0
:08080000006000419805002092
:020000040000fa
:1008080010b588293cd015dc81294dd003dc80291e
:100818004ad0002010bd822911d08429f9d1196845
:10082800002a26d00a1d1a6000228b5e0360db179f
:10083800436011e0a02930d010dc9029e9d1196873
:100848000724002a2ed00919a1430a0008321a6089
:100858000b684c68036044600120dbe7c02901d0c5
:10086800f029d6d11a68111d196013680360002396
:10087800dee70c1d1c600b689bb203604260ebe76f
:100888001968002a04d00a1d1a600023cb56cde748
:100898000c1d1c600b68dbb2efe71a68111d1960ac
:1008a8001368c3e70731cfe71968002a03d00a1d88
:0e08b8001a600b68bae70c1d1c600b68dde7c8
:020000040000fa
:0208c600704779
:020000040000fa
:1008c8001f4b5a6852031b68db0c13439b029b0a9d
:1008d8001c4a936300235375110004228b691a4242
:1008e800fcd118491022cb681a42fcd0154a137d56
:1008f80080210b431375144b00229a611a61134b24
:10090800134a1a62190004224b681a42fcd10f4a92
:1009180088234021d15010004831402243581a42c0
:10092800fcd00a4ad0234021d150100090314022f7
:1009380043581a42fcd0074b0422da617047c0467c
:10094800206080000010004000140040001c00409f
:08095800060101000008004047
:020000040000fa
:10096000f0b51600050002278369426987b002933b
:10097000d31a03939b1904910596019302ac3a0094
:100980002100286800f002fe019b984208d1ab6864
:10099000ea68ab619a18aa626b61300007b0f0bddb
:1009a00000280cda102200236968ab620a43ab61ad
:1009b0006b616a60022f12d06368f61aede7019b43
:1009c0001b1a01936368984202d9c01a0834013f88
:1009d00023681b1823606368181a6060cfe71e0045
:0209e000dbe753
:020000040000fa
:0209e200fee72e
:020000040000fa
:1009e4001e4bf0b51c68231e0dd0002221001500fb
:1009f40013000f68bc460f6984450bd1002a06d04a
:100a040017610b0010331800f0bd3900f1e7134be8
:100a14001f60f6e7844504d9002b1ad01e68b4453c
:100a240017d30a00002ff0d1002becd01f001a6856
:100a34001969121a1037102a05d91860381801617b
:100a44000100103a02609c4206d1044b19603b003d
:100a5400d9e715000b00e4e72961f8e7f405002065
:020000040000fa
:100a640010b582b0002301931a4a118c0f330b4046
:100a74003f21545ce4b253540f31525cd2b2019220
:100a8400019a0220920708d512494e22885419016e
:100a9400114a5218002111730138019ad20709d55d
:100aa4000c494e220120885419010b4a5218002186
:100ab400117301301901084a52185268002a04d0ef
:100ac400054a531899685b689847024a3f23d454ef
:0c0ad40002b010bd00600041a805002029
:020000040000fa
:100ae00010b51c4a137801210b4313701100012229
:100af0004b681a42fcd1174980235b04cb61002369
:100b00000b6240330b61144b10221a819a821a84b3
:100b10009a851a8744201a520c3006241c520c3035
:100b20001a520c301a520c301a520c301a520c3025
:100b30001a520c301a520c301a520c301a520c3015
:100b40001a520b78022213430b7002224b681a428e
:0c0b5000fcd110bd00280040080400206b
:020000040000fa
:100b5c00f8b5846a05000f001600002c0ad0ab6aa9
:100b6c006a699b1ab3420cd2320039002800fff795
:100b7c00f1fe05e000f074fd03002000002beed028
:100b8c00f8bd002ef0d02b0034331b785bb2002b59
:100b9c001adb3400dbb2621eb95c994212d122001e
:100bac0039002800fff7d6fea042e9d33f19341bc9
:100bbc0022003900686900f0c3fd6b6930001c1914
:0c0bcc006c61dde7141ee6d13400f1e797
:020000040000fa
:100bd800f0b51d00012389b014000e9a06001a40d2
:100be8000391029201d1a5420ad82200039930004c
:100bf80000f0a4fba54203d82500280009b0f0bde9
:100c08002f1b01973a00102f00d91022202104a889
:100c180000f0a2fd019b0f2b0ed80f2204a93a4029
:100c2800300000f08bfb029b002be6d122000399d9
:100c3800300000f083fbe0e7102204a9300000f048
:0a0c48007dfb019b103b0193e4e7e4
:020000040000fa
:020c5200fee7bb
:020000040000fa
:100c5400546f67676c696e67204c4544206174204b
:100c6400353030206d696c6c697365636f6e6473c5
:100c74002072617465200d0a000000004c45442078
:100c8400546f67676c696e6720726174652069735d
:100c9400206368616e67656420746f2025730d0a94
:100ca40000000000546f67676c696e67204c454410
:100cb4002061742025732072617465200d0a000080
:020000040000fa
:100cc40010b584291fd007dc812915d0822922d0b0
:100cd400802911d0002010bd90291cd008dc88295f
:100ce400f8d119680c1d1c600b6803601a7010e0c1
:100cf400a02901d0c029edd119680c1d1c600b6816
:100d040003601a6005e019680c1d1c600b68036021
:100d14001a800120dfe719680c1d1c600b68036052
:080d24001a60d2175a60f4e7cf
:020000040000fa
:100d2c007fb51600c2680d0013000091591e8b414f
:100d3c00f31a019383680400039269460222006847
:100d4c00029300f009fc002808dc1822082302405a
:100d5c005340626813436360060010e0019b8342ba
:100d6c00fad2a268c01ae3681018e2632064002b60
:100d7c0005d0531ce3631378ad19013d2b70300083
:040d8c0004b070bd82
:020000040000fa
:100d900037b5164d04002b68002b0fd000f01cfc5b
:100da000019001a800f09efc0f230f309843019999
:100db00000f04efc00280cd000232b60002c00d14a
:100dc00001340f230f349c4304d10c222000084b24
:100dd0001a603ebd042c00d204242000fff702fe5e
:100de0000028f6d0031f1c60f3e7c046e806002089
:040df000f0050020ea
:020000040000fa
:100df400f8b50024144d154e03e077610134102c2e
:100e040020d063001b199b00eb181b899bb2a1b275
:100e14008b42f3d173690127a7401f42eed06300d0
:100e24001b199b0008495b58002be6d0080063009f
:100e340019198900411849681b199b001b5808009f
:100e44009847dae7f8bdc0460804002000280040af
:020000040000fa
:100e540000230e4a10b513600d4a13600d4a136047
:100e64000d4a13600d4a13600d4a53621361013336
:100e7400936000f0bdfc00f004fc0a4c0a4b9c4259
:100e840000d310bd08cc9847f8e7c046ec05002015
:100e940038050020340500202c05002030050020f2
:0c0ea4003c050020b8000000bc0000006d
:020000040000fa
:100eb00070b504000d00002801d1002070bd43680a
:100ec0009b0607d543698269934215d80023a36224
:100ed000a3616361e16b236c994204d2c91a0122b8
:100ee000206800f0c6fc00232364e3639d42e4d045
:100ef000206800f0b3fce1e70022c36a11009847c4
:0c0f00006369002be2d101204042d7e7da
:020000040000fa
:100f0c0010b50d4a002111705160916011730b489e
:100f1c000b4b58630b4c9c630b4c5c613f24195579
:100f2c000a4959640a490180012111704d2202318c
:100f3c009954084a1a8010bda80500209805002075
:100f4c0000600041b805002081818181000580008e
:080f5c0009040000020f00006f
:020000040000fa
:100f6400f8b505000c000020002d20d000f0a4faf4
:100f7400002c17d000200e4a0421072605e0178d07
:100f84004300ef52013084420dd0137e0b42fcd05b
:100f9400538b334207d153683340012befd0138d69
:100fa4002b54efe72000201a44426041c0b2f8bd40
:040fb40000080042ef
:020000040000fa
:100fb80010b5114b06225a60104b1b6818680021a7
:100fc80000f0f2fb0e4b1b681868002100f0ecfbe8
:100fd80000f03efafff774fc00f018fc00f0ccf9c2
:100fe800fff76dfcfff78efffff776fd00f01cf9a9
:100ff80000f0d0f810bdc0460040004100060020b7
:04100800e4060020da
:020000040000fa
:10100c00353030206d696c6c695365636f6e647339
:10101c000000000031205365636f6e640000000017
:10102c00000000000000000032205365636f6e6406
:10103c007300000000000000000000003420536525
:10104c00636f6e647300000000000000000000007d
:020000040000fa
:10105c00f0b50f0087b0039015001049072204a8c3
:10106c001c0000f06dfbbb687e6802933f68002d8e
:10107c0000d104ad002c03d1280000f0fffa0400cd
:10108c00002e02dbb44200d934000097029b2200f0
:10109c0029000398fff79afd07b0f0bd5418000023
:020000040000fa
:1010ac0070b5040016001d00022a1cd043689b0674
:1010bc0019d4002908d1002d01d18025ed0028007c
:1010cc000830fff75ffe010020236268a160134324
:1010dc0063602300e5603433ff22012e00d10a2225
:1010ec001a70024be362002070bdc0465d0b00001d
:020000040000fa
:1010fc0030b51500012289b0524201920432ff3200
:10110c000292002800d16846002403900491a14269
:10111c0000d04c1e0594002906da4f220120074b03
:10112c0040421a6009b030bd002207900270069050
:10113c001a00290001a800f0adfaf3e7f005002031
:020000040000fa
:10114c0070b5104c05002368002b0cd0002d12da62
:10115c000d4b22681b68d31a6a42934208db206845
:10116c004519256006e000f057f92368002bedd1f6
:10117c000120404270bd054b22681b689b1aab4294
:10118c00eddaf5e7d4050020dc050020d8050020b9
:020000040000fa
:10119c00bff35f8f62b60f4bc02080001a580e4908
:1011ac001140c02212040a431a5004221a601a5821
:1011bc001202120ac02109060a431a5008221a60a8
:1011cc0004301a581202120a0a431a5080221a606a
:0c11dc007047c04600e100e0ffff00ff8c
:020000040000fa
:1011e80010b5064c2378002b07d1054b002b02d0f5
:1011f800044800e000bf0123237010bd7c050020d7
:101208000000000000000000044b10b5002b03d0c4
:101218000349044800e000bf10bdc04600000000bc
:08122800800500200000000019
:020000040000fa
:101230000f4b01221a8019000b691a42fcd10c4b8a
:101240000c4a1a801900802212020b691342fcd149
:10125000074b802292001a621900e13aff3a0b69ab
:101260001a42fcd1024b802252005a817047c0467c
:08127000002400408081ffff13
:020000040000fa
:1012780010b50a4b98470a4b984700f099f8094b64
:10128800ff229343084a9360084b9847084b9847b6
:10129800084b9847fff79cf9fee7c046d7150000b2
:1012a800d71500000000000000ed00e0550e00001a
:0812b800d7150000d715000056
:020000040000fa
:1012c00070b5002818d0002918d000250c4a012438
:1012d000072605e06b00c35a13850135a94209d0e2
:1012e000137e2342fcd053683340012bf2d0435d80
:1012f0001385f2e7012070bd0020fce70120fae72a
:04130000000800429f
:020000040000fa
:10130400030010b51a78202a0dd0110009390429d8
:1013140009d900212b2a02d02d2a01d10131013310
:1013240000200a2404e00133ece760430133801a0f
:101334001a78303a092af8d9002900d1404210bd60
:020000040000fa
:10134400436870b50400d80512d52569954200d9c3
:101354001500002d0bd02a00606900f0f5f9226910
:1013640063695b19551b0022636125611a7070bda6
:0c137400db06fcd4200000f00ffaf8e7c4
:020000040000fa
:101380000a4b0b4a1a600b4a9a81c02292025a6099
:101390001a00d369002bfcd1044a136802210b43c5
:1013a0001360d369002bfcd17047c046000800428f
:0813b000040112402bf6ffffbf
:020000040000fa
:1013b80010b50b480168002905d14368002b02d1fc
:1013c80000f025f910bd04008368064a9bb20c346e
:1013d8009b009b5842682000984780002018e9e746
:0813e8000804000038170000a2
:020000040000fa
:1013f000f0b5050000200a4a4400a65c002e02d188
:1014000012195078f0bd296801300f78c0b2b74288
:1014100003d112190131507829600a28ebd9f1e77c
:04142000ce160000e4
:020000040000fa
:10142400074b1a68002a01d1064a1a60064a116855
:10143400002901d1054911601a68054b1a607047eb
:10144400dc050020f0060020d8050020f00800206c
:04145400d40500209b
:020000040000fa
:101458008223db05802212041a6052081a610122d5
:1014680040215a5401315a5455323c399954013269
:1014780003399954273a313199540b320021995440
:021488007047ab
:020000040000fa
:02148a00fee77b
:020000040000fa
:10148c0010b5084b9a8992b207494a60074a9a816b
:10149c009b890b68002b04d00b00486889681b687b
:1014ac00984710bd00240040c8050020ff81ffffb5
:020000040000fa
:1014bc00094b5b8b5b070dd0074b80221a76793a70
:1014cc005a831b7e5b0705d5034b04211a8d1a7eac
:0c14dc000a42fbd17047c04600080042e5
:020000040000fa
:1014e800002380290fdb812901dd83290bd1072106
:1014f800136807338b431900083111601a685b6859
:0a15080002604360012318007047e1
:020000040000fa
:10151200020000234832d356591e0b431370042392
:101522004268134005d01023134343600120404218
:0a15320070470364c3631800fae772
:020000040000fa
:10153c0030b543001b189b00064ce3181b899bb26b
:10154c00834200d030bd43001d18ad0029516019f5
:08155c004260f7e708040020db
:020000040000fa
:10156400f7b5002507000c002e000192019b9e4256
:1015740001db2800febd62682168380000f018f81d
:0815840001362d180834f1e7cf
:020000040000fa
:10158c00f7b5002507000c002e000192019b9e422e
:10159c0001db2800febd62682168380000f044f8c9
:0815ac0001362d180834f1e7a7
:020000040000fa
:1015b40010b50c000023002809d10300002a06d02e
:1015c40001212000fff7ccfc0028f9d001231800ea
:0215d40010bd48
:020000040000fa
:0215d60070475c
:020000040000fa
:1015d80010b5054c2368002b01d1fff71fff034b03
:1015e80018682368c01a10bdd4050020d80500204b
:020000040000fa
:1015f800002310b5934206d103201840421e9041a3
:0e1608009b08c01810bdc45ccc540133f2e73f
:020000040000fa
:0216160070471b
:020000040000fa
:10161800054a138802210b431380110002220b692b
:0c1628001a42fcd17047c046002400406c
:020000040000fa
:1016340070b50d001400012801d0200070bd2100f8
:0c1644002800fff73bfe0028f9d0f6e775
:020000040000fa
:101650000023054a10b514689c4203d11060036151
:0c16600001600133180010bdf4050020eb
:020000040000fa
:10166c0010b50400fff74fff002805d1a368e2680e
:0a167c00a36163619b18a36210bd17
:020000040000fa
:021686007047ab
:020000040000fa
:101688000378002b06d0030001331a78002afbd117
:08169800181a70470020fce75e
:020000040000fa
:1016a00013b50400019201aafef710fd6368db0682
:0816b00001d50120404216bde6
:020000040000fa
:1016b8000eb403b503aa02ca019200f061f802b0a1
:0616c80008bc03b0184746
:020000040000fa
:1016ce0068076c094c836a9074a07ac000806888a1
:0616de0000846c82008113
:020000040000fa
:1016e400006810b5002801da002010bdfff72cfdba
:0616f400431cfad1f8e7e7
:020000040000fa
:0216fa00704737
:020000040000fa
:1016fc00034b9861190008220b691a42fcd1704700
:04170c000024004075
:020000040000fa
:10171000034b1862190020220b691a42fcd1704752
:041720000024004061
:020000040000fa
:10172400012800d07047024b01221a70fae7c04624
:04173400fb05002091
:020000040000fa
:10173800c3170000f91500006318000063180000c3
:041748006318000022
:020000040000fa
:10174c0010b5002a05d00023cc5cc454013393425d
:04175c00fad110bdf1
:020000040000fa
:10176000002a06d00300c9b28218197001339342cf
:04177000fbd17047f2
:020000040000fa
:1017740010b500f069f8024b1860586010bdc046ff
:04178400e00500205c
:020000040000fa
:1017880010b513000a000249fff7b4fc10bdc046ab
:04179800ffffff7fd1
:020000040000fa
:10179c00c36a10b5002b01d0984710bd0068fff745
:0417ac0043fffae716
:020000040000fa
:1017b0004a424a41802310b55200db00fff776fc15
:0217c00010bd5a
:020000040000fa
:1017c2008a18914201d10020704700230b70013129
:0217d200f7e737
:020000040000fa
:1017d40003010248c018416082607047a8050020d8
:020000040000fa
:1017e400c30502d5014b01221a707047f905002088
:020000040000fa
:1017f40010b5fff7bdfffff77efffff77cff10bdbd
:020000040000fa
:0e1804000300413b192b01d8202318437047e5
:020000040000fa
:0218120070471d
:020000040000fa
:0c181400014b84225a60704700400041e4
:020000040000fa
:0c182000014b186099607047c80500205b
:020000040000fa
:0c182c00014b01221a707047f8050020e3
:020000040000fa
:0a18380010b50068fff7fafe10bdbe
:020000040000fa
:08184200286e696c29002500e5
:020000040000fa
:08184c00004870476806002007
:020000040000fa
:07185400286e756c6c290081
:020000040000fa
:06185c000120404270472c
:020000040000fa
:0418620000207047ab
:020000040000fa
:0418660000207047a7
:020000040000fa
:04186a0000207047a3
:020000040000fa
:04186e00002070479f
:020000040000fa
:04187200002070479b
:020000040000fa
:0200000400807a
:04400000ff00fe03bc
:020000040000fa
:0200000400807a
:0440040000fcffffbe
:00000001FF
