:020000040000fa
:10000000f83f0020f1070000b7080000cf0900000a
:1000100000000000000000000000000000000000e0
:100020000000000000000000000000005702000077
:10003000000000000000000057020000570200000e
:100040005702000057020000210900004906000085
:10005000570200005702000057020000cd050000c3
:10006000570200005702000057020000570200002c
:10007000570200005d0a000057020000570200000e
:10008000250a000057020000570200005702000036
:1000900057020000ed09000057020000570200005f
:0c00a00057020000570200005702000049
:020000040000fa
:1000ac00f8b5c046f8bc08bc9e467047d1070000a6
:1000bc00f8b5c046f8bc08bc9e467047a9070000be
:020000040000fa
:1000cc0008d1002806d1f54204d801d3002a01d169
:1000dc006d0d09d10020c143090dc904f0bdf9d142
:1000ec001242f7d1640df5d00020c14349054908ef
:1000fc00a6e000206146f0bdf0b50127ff070e0019
:10010c005e403e40b446be0a4c18dd18f442d7d2cd
:10011c00f542e4d2640decd06d0dead06419c9023d
:10012c003943460dc0023143db023b43db0a10b4ba
:10013c008e4685b297b26f43140c6c433e0ca419d7
:10014c00260c2404bfb227439cb26c43a419190c8f
:10015c006943250ca4b249190d04090c6419000c4f
:10016c0095b245433e0c76193743bfb2360c150c8d
:10017c004543ad19a6b2240cad192e0437432e0cf1
:10018c0036199db24543ad19acb22e0c89191d0c14
:10019c0045436d182e04290c3443704680b295b239
:1001ac0045433e0c76193743bfb2360c150c45430c
:1001bc00ad19a6b2ad19240c2e0437432e0c3619ea
:1001cc009db24543ad19acb22e0c89191d0c45439b
:1001dc006d182e043443290c75462d0c90b26843cf
:1001ec003e0c80190604bfb23e43070ca0b23f1868
:1001fc00120c6a43d019020c80b2240ca4189ab2c7
:10020c006a43121914042043120c89181b0c6b43fb
:10021c00c91810bc01273d05294203d1b61940412c
:10022c004941013cff077d0d013d641b0bdb6d005b
:10023c00ac4209da240500254208be4168416141ff
:0a024c0066463143f0bd54e74ee76b
:020000040000fa
:02025600fee7c1
:020000040000fa
:10025800f0b5c64600b52d4b9b8c2d4a1268500050
:100268001b051b0d2b4943520132012a3edd284b49
:1002780000221a60274e308800f0fafb264a274be6
:10028800fff73cff0022264b00f050f804000d0059
:10029800244b98461c605d60708800f0e9fb1e4a9c
:1002a8001e4bfff72bff00221d4b00f03ff8060006
:1002b8000f0043469e60df6000228023db0520009c
:1002c800290000f0d5fa002815d08223db0510227a
:1002d8009a610022144b3000390000f0c9fa002856
:1002e8000ed08223db0520229a6101e0084b1a60b8
:1002f80004bc9046f0bd8223db0510225a61e8e772
:100308008223db0520225a61f2e7c04600440042fe
:10031800740100203c0100206666666666660a4035
:0c03280000feaf40400100200000f83f44
:020000040000fa
:10033400f0b40125ed070c005c402c40a446ae0a45
:100344004c18df18f4423dd2f74245d2640d4cd02c
:100354007f0d3cd0e41bc9022943cf0adb022b43a7
:10036400db0a0600b61a9f4104d2013cb6197f414c
:10037400b6185f416812800d241838dd00188442d5
:1003840025d8e80c0021b6197f41b61a9f4103d342
:1003940040414941f7d304e0b6185f410018494190
:1003a400f1d32405b6197f41b61a9f4105d33743cb
:1003b400c20717430022012f504161416246114395
:1003c400f0bc70470cd100280ad1f74208d20020b3
:1003d400c143490d0905f1e7002a01d1f74206d0ce
:1003e4000020c143090dc904eae77f0df8d00020bd
:0403f4006146e5e792
:020000040000fa
:1003f800254b01221a6019008b681a42fcd1224b46
:100408000522da635969f02212010a435a615969cf
:100418001e4a0a435a61190040228b681a42fcd1cd
:10042800194b802252001a62962252011a6419004e
:1004380080228b681a42fcd1134b962292005a6490
:100448001900593aff3a8b681342fcd10e4b962299
:10045800d2009a641900802292008b681342fcd162
:10046800094bfa22d200da6419008022d2008b6884
:100478001342fcd1044b064a1a6519008022120166
:100488008b681342fcd17047002400420000fafa3e
:04049800b80b00009d
:020000040000fa
:10049c00214b5a6852031b68db0c13439b029b0acb
:1004ac001e4a93630023537513009a69002afcd1ea
:1004bc001a4a0123d1680b42fcd1174b1b681b0154
:1004cc00fe22d203134006221343154a93610223e2
:1004dc00d1680b42fcd0134b832252001a621a00d3
:1004ec00042351680b42fcd10e4b822252005a62fb
:1004fc001a00082351680b42fcd10a4b4022dc2124
:10050c005a500831412058500c315a5058395a50d1
:10051c00054b064ada6170472060800000100040ed
:10052c0000140040001c00400008004001120200b2
:020000040000fa
:10053c00100100201c000000000000005c010020e5
:10054c0008000000000000002c010020100000003a
:10055c000000000000000020c000000000000000af
:10056c00500100200c00000000000000640100207d
:10057c0010000000000000004001002010000000ee
:10058c00000000003c0100200400000000000000fe
:10059c00740100200800000000000000c0000020d2
:1005ac0050000000000000007c010020040000004e
:1005bc000000000000000000000000006666666697
:020000040000fa
:1005cc0010b582b0002301931a4a118c0f330b40e3
:1005dc003f21545ce4b253540f31525cd2b20192bd
:1005ec00019a0220920708d512494e22885419010b
:1005fc00114a5218002111730138019ad20709d5fa
:10060c000c494e220120885419010b4a5218002122
:10061c00117301301901084a52185268002a04d08b
:10062c00054a531899685b689847024a3f23d4548b
:0c063c0002b010bd006000412c01002045
:020000040000fa
:10064800f8b50024144d154e03e077610134102ce1
:1006580020d063001b199b00eb181b899bb2a1b229
:100668008b42f3d173690127a7401f42eed0630084
:100678001b199b0008495b58002be6d00800630053
:1006880019198900411849681b199b001b58080053
:100698009847dae7f8bdc04600000020002800406f
:020000040000fa
:1006a80000230e4a10b513600d4a13600d4a1360fb
:1006b8000d4a13600d4a13600d4a536213610133ea
:1006c800936000f02bfa00f029fa0a4c0a4b9c427e
:1006d80000d310bd08cc9847f8e7c0467c0100203d
:1006e800cc000020c8000020c0000020c40000206a
:0c06f800d0000020b8000000bc00000092
:020000040000fa
:100704008223db05012248215a5401315a54013114
:100714005a5401315a5403315a5401315a54013153
:100724005a5401315a541d394420585421310f3838
:1007340019540230195401301954c02189049960a4
:1007440042215a5401315a54303232399954013abf
:040754009a607047f0
:020000040000fa
:10075800114b01221a7019000b8c1342fcd10f4b5c
:100768001b889a06520f1b02e021c9000b401a434e
:10077800094b9a850221597005229a70d970013166
:1007880099625a7319001b320b8c1342fcd1024b2d
:1007980001225a717047c046004400422060800020
:020000040000fa
:1007a80010b5064c2378002b07d1054b002b02d03f
:1007b800044800e000bf0123237010bd1001002091
:1007c8000000000000000000044b10b5002b03d00f
:1007d8000349044800e000bf10bdc0460000000007
:0807e8001401002000000000d4
:020000040000fa
:1007f00010b50a4b98470a4b984700f077f8094b19
:10080000ff229343084a9360084b9847084b984748
:10081000084b984700f0b4f8fee7c046ef0a000026
:10082000ef0a00000000000000ed00e0a906000053
:08083000ef0a0000ef0a0000ce
:020000040000fa
:10083800bff35f8f62b60c4bc42189005a58ff2062
:1008480082433f3802435a50802252021a60c52020
:1008580080001a5805491140802212020a431a5092
:10086800802292031a60704700e100e0ff00ffff5a
:020000040000fa
:1008780030b401256d054c00e54215d85c00e54211
:1008880012d80c001c436400044314430cd005d256
:1008980082428b418041404230bc7047904299412e
:0e08a8008041404230bc7047002030bc704799
:020000040000fa
:0208b600fee75b
:020000040000fa
:1008b8000b4b01221a6019000b691a42fcd1084b34
:1008c80018221a60173a1a734022ff32da611900a7
:1008d800ff3a0b691a42fcd1014b01225a72704748
:0408e800003000429a
:020000040000fa
:1008ec0010b50a480168002903d14368002b00d1d8
:1008fc0010bd04008368064a9bb20c349b009b58c5
:10090c0042682000984780002018ebe73c05000067
:04091c00c80a000005
:020000040000fa
:1009200010b5084b9a8992b207494a60074a9a81e2
:100930009b890b68002b04d00b00486889681b68f2
:10094000984710bd0024004050010020ff81ffffa8
:020000040000fa
:1009500010b50a4b06225a60fff7d4fefff79efd42
:1009600000f0a6f8fff748fdfff7a6fffff7f4fe3b
:1009700000f0c4f8fff760ff10bdc0460040004122
:020000040000fa
:1009800010b50020fff7e4ff0021074800f0bcf895
:100990000021064800f0acf800f052f800f034f8fe
:1009a00000f016f8fee7c046150b000059020000e3
:020000040000fa
:1009b000002310b5934206d103201840421e9041f7
:0e09c0009b08c01810bdc45ccc540133f2e794
:020000040000fa
:0209ce00fee742
:020000040000fa
:1009d000054a137802210b431370110002220b8c7d
:0c09e0001342fcd17047c04600440042a6
:020000040000fa
:1009ec0010b5044b01229a71034b59681b68002007
:0c09fc00984710bd004400425c01002040
:020000040000fa
:100a0800054a136802210b431360110002220b6987
:0c0a18001a42fcd17047c046003000427a
:020000040000fa
:100a240010b5044b01229a72034b59681b680020cd
:0c0a3400984710bd003000426401002013
:020000040000fa
:100a4000054a136802210b431360110002228b68d0
:0c0a50001a42fcd17047c046002400424e
:020000040000fa
:100a5c0010b5044b0122da62034b59681b68002065
:0c0a6c00984710bd002400426c010020df
:020000040000fa
:100a7800054b004206d5404200b5984708bc012204
:0c0a8800d207114318470000950a000037
:020000040000fa
:100a940042221201033a010007d002d4013a00189d
:0c0aa400fcd51205c30a400599187047e4
:020000040000fa
:100ab0008423db05034a1a62343aff3a0121995034
:080ac0007047c046230200004c
:020000040000fa
:100ac800dd0a0000b1090000210b0000210b000025
:040ad800210b0000ee
:020000040000fa
:100adc008a18914201d10020704700230b7001311c
:020aec00f7e72a
:020000040000fa
:020aee0070474f
:020000040000fa
:0c0af000014b1860596070475c01002049
:020000040000fa
:0c0afc00014b84225a607047004000410a
:020000040000fa
:0c0b0800014b1860596070476401002028
:020000040000fa
:0c0b14008223db05c0229204da617047e6
:020000040000fa
:040b200000207047fa
:020000040000fa
:020b2400704718
:020000040000fa
:0200000400807a
:04400000ff00fe03bc
:020000040000fa
:0200000400807a
:0440040000fcffffbe
:00000001FF
