:020000040000fa
:10000000f03f0020f5010000ff030000290400007c
:1000100000000000000000000000000000000000e0
:10002000000000000000000000000000d7030000f6
:100030000000000000000000d7030000d70300000c
:10004000d7030000d7030000d7030000d703000048
:10005000d7030000d7030000d7030000d703000038
:10006000d7030000d7030000d7030000d703000028
:10007000d7030000d7030000d7030000d703000018
:10008000b9020000d7030000d7030000d703000027
:10009000d7030000d7030000d7030000d7030000f8
:0c00a000d7030000d7030000d7030000c6
:020000040000fa
:1000ac00f8b5c046f8bc08bc9e467047d5010000a8
:1000bc00f8b5c046f8bc08bc9e467047ad010000c0
:020000040000fa
:1000cc001a4b5a6852031b68db0c13439b029b0aa6
:1000dc00174a936300235375110004228b691a424b
:1000ec00fcd113491022cb681a42fcd0104a137d64
:1000fc0080210b4313750f4b00229a611a610e4b32
:10010c000e4a1a62190004224b681a42fcd10a4aa0
:10011c00e4234021d1501000a431402243581a420c
:10012c00fcd0074b80225201da61704720608000be
:10013c000010004000140040001c004006010100ab
:04014c000008004067
:020000040000fa
:1001500000230e4a10b513600d4a13600d4a136058
:100160000d4a13600d4a13600d4a53621361013347
:10017000936000f05cf900f05af90a4c0a4b9c427b
:1001800000d310bd08cc9847f8e7c046780000209f
:100190000c000020080000200000002004000020c7
:0c01a00010000020b8000000bc000000af
:020000040000fa
:1001ac0010b5064c2378002b07d1054b002b02d041
:1001bc00044800e000bf0123237010bd5000002054
:1001cc000000000000000000044b10b5002b03d011
:1001dc000349044800e000bf10bdc0460000000009
:0801ec00540000200000000097
:020000040000fa
:1001f40010b50a4b98470a4b984700f03ff8094b53
:10020400ff229343084a9360084b9847084b98474a
:10021400084b984700f0c4f8fee7c0462b040000e2
:100224002b0400000000000000ed00e0510100007c
:080234002b0400002b04000064
:020000040000fa
:10023c000d4b01221a6019000b691a42fcd10a4bb2
:10024c00e222d2001a6003221a73084a9a833322dc
:10025c009a72074a0021116001225a721a0013691e
:10026c00002bfcd17047c046003000421ab7ffff8c
:04027c006c000020f2
:020000040000fa
:1002800010b50b480168002905d14368002b02d145
:1002900000f0ccf810bd04008368064a9bb20c3411
:1002a0009b009b5842682000984780002018e9e78f
:0802b000ec020000d80300007d
:020000040000fa
:1002b80010b50a4b5b7a002b0ed0084b987ac0b267
:1002c80033229a72064b1b68002b05d0002803d0f6
:1002d800034b59681b68984710bdc0460030004260
:0402e8006c00002086
:020000040000fa
:1002ec00500000202800000000000000000000204a
:1002fc005000000000000000780000200400000006
:10030c000000000000000000000000006666666649
:020000040000fa
:10031c0010b5084b06225a6000f04cf8fff7d0fedf
:10032c0000f068f800f029f8fff782ff00f004f8fd
:08033c0010bdc0460040004165
:020000040000fa
:10034400bff35f8f62b6064ac42189005358ff2069
:1003540083433f380343535080235b021360704749
:0403640000e100e0d4
:020000040000fa
:10036800002310b5934206d103201840421e904145
:0e0378009b08c01810bdc45ccc540133f2e7e2
:020000040000fa
:020386007047be
:020000040000fa
:10038800054a136802210b431360110002220b690e
:0c0398001a42fcd17047c0460030004201
:020000040000fa
:1003a40010b50020fff7b8ff0021034800f02cf837
:0c03b400fff7e8fffee7c0461904000058
:020000040000fa
:1003c0008223db05802252041a60002258215a54ed
:0603d0001c395a5470476d
:020000040000fa
:0203d600fee740
:020000040000fa
:1003d800ed03000069030000250400002504000067
:0403e80025040000e8
:020000040000fa
:1003ec008a18914201d10020704700230b70013113
:0203fc00f7e721
:020000040000fa
:0203fe00fee718
:020000040000fa
:0c040000014b84225a607047004000410c
:020000040000fa
:0c040c00014b1860596070476c00002024
:020000040000fa
:0c0418008223db0580225204da61704769
:020000040000fa
:0404240000207047fd
:020000040000fa
:02042800fee7ed
:020000040000fa
:02042a00704719
:020000040000fa
:02042c00704717
:020000040000fa
:02042e00704715
:020000040000fa
:0200000400807a
:04400000ff00fe03bc
:020000040000fa
:0200000400807a
:0440040000fcffffbe
:00000001FF
