:020000040000fa
:10000000f83f0020f9030000df0600005d07000054
:1000100000000000000000000000000000000000e0
:10002000000000000000000000000000f3050000d8
:100030000000000000000000f3050000f3050000d0
:10004000f3050000f305000055050000490200001b
:10005000f3050000f3050000f3050000690100004e
:10006000f3050000f3050000f3050000f3050000b0
:10007000f3050000f3050000f3050000f3050000a0
:1000800011060000f305000049060000810600008b
:10009000b5050000f3050000f3050000f3050000be
:0c00a000f3050000f3050000f30500006c
:020000040000fa
:1000ac00f8b5c046f8bc08bc9e467047d9030000a2
:1000bc00f8b5c046f8bc08bc9e467047b1030000ba
:020000040000fa
:1000cc00214b5a6852031b68db0c13439b029b0a9f
:1000dc001e4a93630023537513009a69002afcd1be
:1000ec001a4a0123d1680b42fcd1174b1b681b0128
:1000fc00fe22d203134006221343154a93610223b6
:10010c00d1680b42fcd0134b832252001a621a00a6
:10011c00042351680b42fcd10e4b822252005a62ce
:10012c001a00082351680b42fcd10a4be4224121ee
:10013c009950a43aa7315a5004315a50064bf82220
:10014c005202da617047c046206080000010004007
:0c015c0000140040001c0040000800409f
:020000040000fa
:1001680010b582b0002301931a4a118c0f330b404b
:100178003f21545ce4b253540f31525cd2b2019225
:10018800019a0220920708d512494e228854190173
:10019800114a5218002111730138019ad20709d562
:1001a8000c494e220120885419010b4a521800218b
:1001b800117301301901084a52185268002a04d0f4
:1001c800054a531899685b689847024a3f23d454f4
:0c01d80002b010bd006000412c010020ae
:020000040000fa
:1001e40030b5bff35f8f62b6144bc42292009958a6
:1001f400ff25a943c0242143995080214902196055
:1002040099580f480840c02109040143995080219e
:10021400c902196099580902090ac020000601435d
:100224009950802212031a60c52189005a58aa43a2
:1002340022435a50802252031a6030bd00e100e08c
:04024400ffff00ffb9
:020000040000fa
:10024800f8b50024144d154e03e077610134102ce5
:1002580020d063001b199b00eb181b899bb2a1b22d
:100268008b42f3d173690127a7401f42eed0630088
:100278001b199b0008495b58002be6d00800630057
:1002880019198900411849681b199b001b58080057
:100298009847dae7f8bdc046000000200028004073
:020000040000fa
:1002a800100100201c000000000000002c010020ac
:1002b800100000000000000000000020c000000046
:1002c800000000003c0100201400000000000000b5
:1002d800500100201c00000000000000c0000020a9
:1002e80050000000000000006c0100200400000025
:1002f800000000000000000000000000666666665e
:020000040000fa
:1003080000230e4a10b513600d4a13600d4a13609e
:100318000d4a13600d4a13600d4a5362136101338d
:10032800936000f019fa00f017fa0a4c0a4b9c4245
:1003380000d310bd08cc9847f8e7c0466c010020f0
:10034800cc000020c8000020c0000020c40000200d
:0c035800d0000020b8000000bc00000035
:020000040000fa
:1003640010b5002000f00cf900210c4800f0c2f98f
:1003740000210b4800f0dcf900210a4800f0def906
:100384000021094800f0e0f900f032f900f04cf9de
:1003940000f066f900f080f9fee7c0462907000086
:0c03a4001d070000110700000507000005
:020000040000fa
:1003b00010b5064c2378002b07d1054b002b02d03b
:1003c000044800e000bf0123237010bd100100208d
:1003d0000000000000000000044b10b5002b03d00b
:1003e0000349044800e000bf10bdc0460000000003
:0803f0001401002000000000d0
:020000040000fa
:1003f80010b50a4b98470a4b984700f08df8094bff
:10040800ff229343084a9360084b9847084b984744
:10041800084b9847fff7a2fffee7c0465f070000ba
:100428005f0700000000000000ed00e00903000085
:080438005f0700005f070000f0
:020000040000fa
:100440000b4b01221a6019000b691a42fcd1084bb0
:1004500018221a60173a1a73064ada611900402204
:100460000b691a42fcd1024b01225a727047c046f6
:0804700000300042ffa50e0060
:020000040000fa
:100478000b4b01221a6019000b691a42fcd1084b78
:10048800e222d2001a6001221a73064a9a831900de
:1004980040220b691a42fcd1014b01225a72704763
:0804a800003800428c5b0000eb
:020000040000fa
:1004b0000b4b01221a6019000b691a42fcd1084b40
:1004c000e222d2001a6003221a73064a9a831900a4
:1004d00040220b691a42fcd1014b01225a7270472b
:0804e000003c00421ab7ffffc7
:020000040000fa
:1004e8000b4b01221a6019000b691a42fcd1084b08
:1004f80010221a600f3a1a73064a9a83190040228a
:100508000b691a42fcd1024b01225a727047c0464d
:08051800004000427fbbffff21
:020000040000fa
:1005200010b50a480168002903d14368002b00d1a7
:1005300010bd04008368064a9bb20c349b009b5894
:1005400042682000984780002018ebe7a8020000ce
:04055000b8060000e9
:020000040000fa
:1005540010b5084b9a8992b207494a60074a9a81b2
:100564009b890b68002b04d00b00486889681b68c2
:10057400984710bd002400403c010020ff81ffff8c
:020000040000fa
:1005840010b50a4b06225a6000f0aef8fff79cfd46
:10059400fff754fffff76efffff788fffff7a2ff97
:1005a40000f09cf8fff71cfe10bdc046004000415f
:020000040000fa
:1005b40010b5054b33229a72323a9a72034b59683a
:1005c4001b680020984710bd0040004260010020d5
:020000040000fa
:1005d400002310b5934206d103201840421e9041d7
:0e05e4009b08c01810bdc45ccc540133f2e774
:020000040000fa
:0205f200fee722
:020000040000fa
:1005f400054a136802210b431360110002220b69a0
:0c0604001a42fcd17047c0460030004292
:020000040000fa
:1006100010b5044b01229a72034b59681b680020e5
:0c062000984710bd003000424801002047
:020000040000fa
:10062c00054a136802210b431360110002220b6967
:0c063c001a42fcd17047c0460038004252
:020000040000fa
:1006480010b5044b01229a72034b59681b680020ad
:0c065800984710bd0038004250010020ff
:020000040000fa
:10066400054a136802210b431360110002220b692f
:0c0674001a42fcd17047c046003c004216
:020000040000fa
:1006800010b5044b01229a72034b59681b68002075
:0c069000984710bd003c004258010020bb
:020000040000fa
:10069c00054a136802210b431360110002220b69f7
:0c06ac001a42fcd17047c04600400042da
:020000040000fa
:1006b800cd060000d50500005907000059070000c5
:0406c80059070000ce
:020000040000fa
:1006cc008a18914201d10020704700230b70013130
:0206dc00f7e73e
:020000040000fa
:0206de00fee735
:020000040000fa
:0c06e000014b84225a607047004000412a
:020000040000fa
:0c06ec008223db05f02212019a607047a7
:020000040000fa
:0c06f800014b1860596070474801002059
:020000040000fa
:0c0704008223db0580221201da617047bd
:020000040000fa
:0c0710008223db058022d200da617047f2
:020000040000fa
:0c071c008223db0580229200da61704726
:020000040000fa
:0c0728008223db0580225200da6170475a
:020000040000fa
:0c073400014b1860596070475001002014
:020000040000fa
:0c074000014b1860596070475801002000
:020000040000fa
:0c074c00014b18605960704760010020ec
:020000040000fa
:0407580000207047c6
:020000040000fa
:02075c00fee7b6
:020000040000fa
:02075e007047e2
:020000040000fa
:020760007047e0
:020000040000fa
:0200000400807a
:04400000ff00fe03bc
:020000040000fa
:0200000400807a
:0440040000fcffffbe
:00000001FF
