:020000040000fa
:10000000f83f0020350300005f0400007d0400007d
:1000100000000000000000000000000000000000e0
:10002000000000000000000000000000ff030000ce
:100030000000000000000000ff030000ff030000bc
:10004000ff030000ff030000b1030000e101000016
:10005000ff030000ff030000ff0300006501000034
:10006000ff030000ff030000ff030000ff03000088
:10007000ff030000ff030000ff030000ff03000078
:10008000ff030000ff030000ff030000ff03000068
:10009000ff030000ff030000ff030000ff03000058
:0c00a000ff030000ff030000ff0300004e
:020000040000fa
:1000ac00f8b5c046f8bc08bc9e4670471503000066
:1000bc00f8b5c046f8bc08bc9e467047ed0200007f
:020000040000fa
:1000cc001f4b5a6852031b68db0c13439b029b0aa1
:1000dc001c4a936300235375110004228b691a4246
:1000ec00fcd118491022cb681a42fcd0154a137d5a
:1000fc0080210b431375144b00229a611a61134b28
:10010c00134a1a62190004224b681a42fcd10f4a96
:10011c0088234021d15010004831402243581a42c4
:10012c00fcd00a4ad0234021d150100090314022fb
:10013c0043581a42fcd0074b0422da617047c04680
:10014c00206080000010004000140040001c0040a3
:08015c0006010100000800404b
:020000040000fa
:1001640010b582b0002301931a4a118c0f330b404f
:100174003f21545ce4b253540f31525cd2b2019229
:10018400019a0220920708d512494e228854190177
:10019400114a5218002111730138019ad20709d566
:1001a4000c494e220120885419010b4a521800218f
:1001b400117301301901084a52185268002a04d0f8
:1001c400054a531899685b689847024a3f23d454f8
:0c01d40002b010bd006000412c010020b2
:020000040000fa
:1001e000f8b50024144d154e03e077610134102c4e
:1001f00020d063001b199b00eb181b899bb2a1b296
:100200008b42f3d173690127a7401f42eed06300f0
:100210001b199b0008495b58002be6d008006300bf
:1002200019198900411849681b199b001b580800bf
:100230009847dae7f8bdc0460000002000280040db
:020000040000fa
:1002400000230e4a10b513600d4a13600d4a136067
:100250000d4a13600d4a13600d4a53621361013356
:10026000936000f00df900f00bf90a4c0a4b9c4228
:1002700000d310bd08cc9847f8e7c0464c010020d9
:10028000cc000020c8000020c0000020c4000020d6
:0c029000d0000020b8000000bc000000fe
:020000040000fa
:10029c00100100201c000000000000002c010020b8
:1002ac00100000000000000000000020c000000052
:1002bc00000000003c0100201000000000000000c5
:1002cc00c000002050000000000000004c01002085
:1002dc00040000000000000000000000000000000e
:020000040000fa
:1002ec0010b5064c2378002b07d1054b002b02d000
:1002fc00044800e000bf0123237010bd1001002052
:10030c000000000000000000044b10b5002b03d0cf
:10031c000349044800e000bf10bdc04600000000c7
:08032c00140100200000000094
:020000040000fa
:1003340010b50a4b98470a4b984700f01df8094b33
:10034400ff229343084a9360084b9847084b984709
:10035400084b984700f060f8fee7c0467f040000b1
:100364007f0400000000000000ed00e041020000f6
:080374007f0400007f0400007b
:020000040000fa
:10037c0010b50a480168002903d14368002b00d14d
:10038c0010bd04008368064a9bb20c349b009b583a
:10039c0042682000984780002018ebe79c02000080
:0403ac003804000011
:020000040000fa
:1003b00010b5084b9a8992b207494a60074a9a8158
:1003c0009b890b68002b04d00b00486889681b6868
:1003d000984710bd002400403c010020ff81ffff32
:020000040000fa
:1003e000002310b5934206d103201840421e9041cd
:0e03f0009b08c01810bdc45ccc540133f2e76a
:020000040000fa
:0203fe00fee718
:020000040000fa
:1004000010b5054b06225a6000f030f8fff75efe8b
:0c04100000f026f810bdc046004000417e
:020000040000fa
:10041c0010b50020fff7eeff8223db05802252008f
:0c042c009a6152005a6152009a61fee78a
:020000040000fa
:100438004d040000e1030000790400007904000085
:040448007904000033
:020000040000fa
:10044c008a18914201d10020704700230b700131b2
:02045c00f7e7c0
:020000040000fa
:02045e00fee7b7
:020000040000fa
:0c046000014b84225a60704700400041ac
:020000040000fa
:0c046c008223db05e022d2009a6070477a
:020000040000fa
:0404780000207047a9
:020000040000fa
:02047c00fee799
:020000040000fa
:02047e007047c5
:020000040000fa
:020480007047c3
:020000040000fa
:0200000400807a
:04400000ff00fe03bc
:020000040000fa
:0200000400807a
:0440040000fcffffbe
:00000001FF
